:020000040040BA
:10000000A55AA55A1100000000000000000440009D
:100010000000000000A44E000000000000000000EE
:1000200000000000000000000000000000000000D0
:1000300000000000000000000000000000000000C0
:1000400000000000000000000000000000000000B0
:1000500000000000000000000000000000000000A0
:1004000000904020110C4000C5164000C916400065
:10041000CD164000D1164000D51640000000000067
:10042000000000000000000000000000D91640009D
:10043000DD16400000000000E1164000E516400017
:10044000E9164000E9164000E9164000E9164000B0
:10045000E9164000E9164000E9164000E9164000A0
:10046000E9164000E9164000E9164000E916400090
:10047000E9164000E9164000E9164000E916400080
:10080000E9164000E9164000FFFFFFFFFFFFFFFF72
:10081000FFFFFFFFFFFFFFFFFFFFFFFFFFFFFFFFE8
:10082000FFFFFFFFFFFFFFFFFFFFFFFFFFFFFFFFD8
:10083000FFFFFFFFFFFFFFFFFFFFFFFFFFFFFFFFC8
:10084000FFFFFFFFFFFFFFFFFFFFFFFFFFFFFFFFB8
:100C00006666373766663400FFFFFFFFFFFFFFFFB2
:100C100072B64FF000004FF000014FF000024FF0AD
:100C200000034FF000044FF000054FF000064FF0B6
:100C300000072F4801684FF0807201EA0201002985
:100C40001CD12C4801684FF0807241EA020101601A
:100C5000294801684FF0010241EA0201016027487A
:100C600045F6F02101604AF20F5101602048016809
:100C70004FF0807201EA02010029F7D0204880F38A
:100C80000888FFE71F484CF2205101604DF62811FB
:100C900001601D481D490160FFE71D48002809D07B
:100CA0001C491D4A521A013A04DD0020002309C1E3
:100CB000083AFCDA1648002809D01849104A521A96
:100CC000013A04DD0020002309C1083AFCDA144887
:100CD00000684FF05A318842F9D000D001E000F0AE
:100CE00005FD00F019FD62B600F01CF8AFF30080BE
:100CF00010C32D4030C32D4004C32D4000C02D40F3
:100D0000009040201000274000002740400000FFD6
:100D10000100000000014020B0024020008040207F
:100D2000A00240206D4B1A68D1072DE9F041A4B014
:100D30001FD49B6813F0C00F1BD0694C694B22680D
:100D40009A4200F087800023664A6548226063600B
:100D500023726372A372E37200F0FCF863685A1C9A
:100D600001D0013363605E4800F0F4F86368042B3F
:100D700029D85D4B1C931C9A1C9B1268596872B64B
:100D8000BFF34F8FBFF36F8F584B1C989860BFF322
:100D90004F8FBFF36F8F82F30888BFF34F8FBFF37E
:100DA0006F8FBFF35F8F5A6A22F480325A62D3F892
:100DB000942022F00102C3F89420BFF34F8FBFF3B9
:100DC0006F8F8847FEE70023454823716371A37145
:100DD000E37100F0BFF8414B4FF0FF329A601A60A8
:100DE000002000F0FDFB00F49073B3F5907FF7D185
:100DF0003F49002000F058FB00F038FA012803D0EA
:100E000000F040FA01282CD120213A483A4C4FF406
:100E1000C0023A4B019000200094CDE902113849FC
:100E200000F046FA374B04469842A2D10121002037
:100E300000F092FAA0429CD100F0DCF80224324B80
:100E4000012045F6F0214AF20F525C60986019606B
:100E50001A608EE7204600F09FF800283FF473AF39
:100E60007CE7002420260CAF4FF0040832462146D0
:100E700038460B94CDE9094400F038FD802209ABD7
:100E800001218DF824200320204A00978DF8288026
:100E9000CDE9076600F0E0F81A4B054698427FF46A
:100EA00068AF08A80194009614AC1CAE059007A882
:100EB0003B46174A4146049001200396029400F0F5
:100EC00051F9BDF82030BDF81C203146204600F015
:100ED0000DF9A8427FF44DAF96E700BF00C028404F
:100EE00000FF4120544253500004410000ED00E057
:100EF00000014020E0FF7C00C0FF7C00C0FF1C0020
:100F00009019400033AAA55500C02D4002030100EE
:100F10000102010030B40D4B421E0D4D00F10B04D7
:100F200012F8011F4B40A24205FB03F3F8D100F178
:100F30000F02074CFF3012F8011F4B40904204FB98
:100F400003F3F8D1184630BC704700BFC59D1C8123
:100F50009301000110B50E4B86460E4C421E00F167
:100F60000B0C12F8011F4B40624504FB03F3F8D150
:100F70000EF10F020EF1FF0C064812F8011F4B4054
:100F8000944500FB03F3F8D1CEF80C3010BD00BF40
:100F9000C59D1C8193010001144B02689A4223D124
:100FA00003F14353421E00F10B0C03F5152330B43B
:100FB00003F67133C5680E4C12F8011F4B406245B1
:100FC00004FB03F3F8D100F10F02094CFF3012F8D3
:100FD000011F4B40904204FB03F3F8D1E81AB0FA2A
:100FE00080F030BC40097047002070475442535095
:100FF00093010001002070B500F07EFAFF2822D096
:1010000005B2124E04463822C5EBC503002106EB9B
:10101000C303184600F06AFC06F1E002C4EBC40CFE
:10102000214602EB0512034606EB0415512400206D
:1010300046F83C40064C85F8E000C5F8EC40BDE8B9
:10104000704000F095BA034870BD00BF20014020F9
:1010500080969800F1D4D6332DE9F04F81B08046C8
:1010600000200F4691461E46DDF828B000F044FAF5
:10107000FF2830D00FFA80FA194D04463822CAEB07
:10108000CA03002105EBC303184600F02FFC06211C
:10109000C4EBC402034645F8321005EBC202C2F8A5
:1010A0000C9082F808805772C2F81CB02EB102F181
:1010B000100796E8070087E807000A4A002005EBBA
:1010C0000415214602EB0A1285F8E00001B0BDE8E4
:1010D000F04F00F04DBA044801B0BDE8F08F00BFFA
:1010E0002001402000024020F1D4D6332DE9F04702
:1010F00081460020884617461E4600F0FDF9FF286D
:1011000028D00FFA80FA154D04463822CAEBCA03DC
:10111000002105EBC303184600F0E8FB05F1E002EF
:10112000C4EBC4010346002002EB0A1205EBC10C1C
:10113000ACF80A600726ACF8087045F8316005EB9A
:101140000415214685F8E000CCE90398BDE8F04796
:1011500000F00EBA0248BDE8F08700BF2001402031
:10116000F1D4D6332DE9F04F8DB01D4600278846C7
:10117000169B029038460193189B9DF85C9004934F
:10118000199B039205931A9B0B9706931B9BCDE922
:101190000977079300F0B0F9FF285BD00FFA80FAC7
:1011A0002E4E04463822CAEBCA0339460DF1240BF1
:1011B00006EBC303184600F099FB0346B9F1000F94
:1011C00039D03946C4EBC40080220027DFF890C034
:1011D0008DF8242006EBC0028DF828801177029943
:1011E000556202F10C059172039982F80B9091619E
:1011F0000199177211620499116305995163069957
:1012000091620799D16240F2062106EB041246F87A
:101210003010144982F8E070C2F8EC109BE8070027
:1012200085E807000CEB0A12214638460DB0BDE8F0
:10123000F04F00F09DB9019A0121C6F8349142F0B7
:101240008042C6E94959C6E94B9906F59075C6F83A
:101250002021B7E704480DB0BDE8F08F2001402001
:101260000002402080969800F1D4D63308B50020C3
:1012700000F0B6F900F4C050A0F50060B0FA80F0BC
:10128000400908BD08B5002000F0AAF900F4C050DC
:10129000A0F58050B0FA80F0400908BD08B50020E4
:1012A00000F09EF910F4C05F0CBF0120002008BDC3
:1012B0002DE9F04F85B0884617461E460F9A8146A5
:1012C0000E9B00201099DDF844B001930292039127
:1012D00000F012F9FF2835D00FFA80FA1B4D0446B2
:1012E0003822CAEBCA03002105EBC303184600F0FD
:1012F000FDFA0346C4EBC40C002005F1E00205EB47
:10130000CC0102EB0A124E61019E81F809908E61B8
:10131000029EA1F822B0CE61039E08720E8405EBF6
:101320000416C1E90387214640F2015486F8E00023
:1013300045F83C40064CC6F8EC4005B0BDE8F04F1F
:1013400000F016B9034805B0BDE8F08F2001402039
:1013500080969800F1D4D6332DE9F04180460020E4
:101360000E4600F0C9F8FF2829D007B2154D0446F3
:101370003822C7EBC703002105EBC303184600F072
:10138000B5FA40F20251C4EBC402034645F83210EC
:1013900005EBC20282F808800EB13021518105EBC5
:1013A0000415094A00202146C5F8EC20074A85F8B3
:1013B000E00002EB0712BDE8F04100F0D9B80448A4
:1013C000BDE8F08120014020809698000002402076
:1013D000F1D4D633104B53F82030D3F82C319BB2D4
:1013E000BBB10246002010B40C4C54F8224054F813
:1013F000202000F1010C2AB113F0010F02D0127865
:101400008A4204D05B085FFA8CF0F0D1FF2010BC58
:101410007047FF20704700BF101A4000580240205C
:101420002DE9F04FDFF8789083B0044659F820801A
:101430000191FFF7CFFFFF282ED01A4B0746C44675
:10144000002553F8246001E059F824C058F82730EB
:101450000CEB070E07F1A00B39461A782046012A3B
:1014600006D1D6F828A1BA402AEA0202C6F82821F5
:10147000D3F804A056F82B209B688EF810504CF837
:101480002750BAF1000F00D0D04701992046FFF74E
:10149000A1FFFF280746D7D103B0BDE8F08F00BFFA
:1014A00058024020101A4000002230B50B4D04466F
:1014B00013464A6155F8200003F1A00E01EB030C1E
:1014C00050F82E508CF8102041F823200133042BC3
:1014D000F2D1034B002043F8241030BD101A400015
:1014E00058024020002203460249104641F82320BA
:1014F000704700BF58024020154BF0B553F820400C
:10150000D4F80431D4F82C711FFA83FC114BD4F8B1
:10151000246153F820500123B6B29E46EA180EFA11
:1015200003F0117C21B91CEA000F01D1304204D133
:101530000133042BF2D1FF20F0BD3840012803D144
:1015400003F1A00154F821100121D8B21174F0BDAB
:10155000101A400058024020044B002253F820305B
:101560005818027443F82120704700BF58024020E9
:1015700010B4164C54F8204041B994F810C0BCF196
:10158000010F20D04FF0010C84F810C044F8212046
:101590001278AAB90E4A52F82000012200EB810C01
:1015A0008A40CCF80032D0F82C311A42FBD000230C
:1015B0006218DCF88002137444F8213010BC7047C4
:1015C000044810BC7047044810BC704758024020C3
:1015D000101A400033AAA55566BB66BB02211FE75F
:1015E000034B53F82030D3F80401000C704700BFC0
:1015F000101A400010B4054B054C53F8203054F835
:101600002040626110BCC3F810117047101A4000EE
:1016100058024020F8B5194F194A57F8203052F8AF
:101620002060EBB1D6F82851D6F82C31ADB22B4260
:1016300000D1F8BD01210446FFF7F2FED6F82C31A7
:101640001D40F6D0002325FA03F2D20704D557F83F
:10165000242052F8232062B10133042BF3D1F8BDCA
:10166000D6F88032D6F88432D6F88832D6F88C3262
:10167000F8BD03F1A00256F82220EDE75802402001
:10168000101A40000D4A0E4952F8202051F820301F
:1016900072B110B4D3F81841D3F81011214005D01D
:1016A0005269C3F818110AB110BC104710BC70473A
:1016B0004FF0FF32C3F81821704700BF5802402096
:1016C000101A4000FEE700BFFEE700BFFEE700BFC4
:1016D000FEE700BFFEE700BFFEE700BFFEE700BF7A
:1016E000FEE700BFFEE700BFFEE700BF38B5084CCD
:1016F00025685DB104EBC5050021D4E90102121A89
:1017000001D000F0F3F80834AC42F5D138BD00BF89
:10171000181A4000FEE700BF0022674830B500EB12
:1017200042010132B1F88038F02A9BB243F0010344
:10173000A1F88038F3D1614C0021614A21606148F1
:101740002262614A606061496262614AA1604FF051
:101750008041A26202F16D425E4802F5C0225E4BFA
:10176000E060E2625D4A21614FF0604123635C48C2
:1017700062615C4A6363A061A363E161E263BFF3FA
:101780004F8FBFF36F8F4FF0E023D3F8142D9003EA
:101790002BD4D3F8143DD90327D400234FF0E02CE9
:1017A000194604EB830201F1010E106AC0070AD545
:1017B000CCF8981D5FFA8EF154F82300CCF89C0DFC
:1017C000126ACCF8A02D0133082BEAD1BFF35F8F4A
:1017D000454B0122C3F894205A6A42F480325A627F
:1017E000BFF34F8FBFF36F8F30BD3F480023C0F86A
:1017F0008430BFF34F8FD0F8803043F6E075C3F3E9
:101800004E3CC3F3C90E4FEA4C1C0CEA050173466B
:1018100041EA8372013BC0F874225A1CF8D1ACF142
:10182000200C1CF1200FF0D1BFF34F8FBFF36F8F4F
:101830000023C0F88430BFF34F8F436923F4803313
:101840004361BFF34F8FD0F8803043F6E0752648F0
:10185000C3F34E3CC3F3C90E4FEA4C1C0CEA05011E
:10186000734641EA8372013BC0F874225A1CF8D1D6
:10187000ACF1200C1CF1200FF0D1BFF34F8FBFF360
:101880006F8FBFF34F8FBFF36F8F0022C0F85022CE
:10189000BFF34F8FBFF36F8FBFF34F8FBFF36F8FC8
:1018A000436923F400334361C0F85022BFF34F8FE4
:1018B000BFF36F8F71E700BF000026406002402039
:1018C0003F000410000140002B000B060000001038
:1018D00023000516000140202900051300002040C8
:1018E000000040402700041300ED00E0830730B5FE
:1018F00047D0541E002A3ED0CAB2034601E0013C44
:1019000039D303F8012B9D07F9D1032C2CD9CDB283
:1019100005EB05250F2C05EB054535D9A4F1100283
:1019200022F00F0C03F1100EE6444FEA121C1A4687
:10193000156055609560D56010327245F8D10CF194
:10194000010214F00C0F03EB021204F00F0C13D081
:10195000ACF1040323F003030433134442F8045BA3
:101960009A42FBD10CF003042CB1C9B21C4403F819
:10197000011B9C42FBD130BD64461346002CF4D1C0
:10198000F9E703461446C0E71A46A446E0E700BF5D
:1019900000004000C0FF1C0000000000000000002C
:1019A00000000000000301008000000004000000AF
:1019B00000000000C0FF5C00E0FF5C0000000000D1
:1019C0000000000000000000000000000000000017
:1019D00000005D00C03F00000000000000000000AB
:1019E000000000000003010080000000040000006F
:1019F00000000000C03F5D00E03F5D00000000000F
:101A000000000000000000000000000000000000D6
:101A100000C0384000C04E400300000000014020DC
:101A2000B0024020FFFFFFFFFFFFFFFFFFFFFFFFB0
:101A3000FFFFFFFFFFFFFFFFFFFFFFFFFFFFFFFFB6
:101A4000FFFFFFFFFFFFFFFFFFFFFFFFFFFFFFFFA6
:101A5000FFFFFFFFFFFFFFFFFFFFFFFFFFFFFFFF96
:101A6000FFFFFFFFFFFFFFFFFFFFFFFFFFFFFFFF86
:020000040041B9
:10000000DB01020000004100BC8E090000A04E0090
:1000100000000000000000000000000000000000E0
:1000200000000000000000000000000000000000D0
:1000300000000000000000000000000000000000C0
:10004000FFFFFFFFFFFFFFFFFFFFFFFFFFFFFFFFC0
:10040000E89E4120498B4400C3264800358B4400B8
:10041000358B4400358B4400358B440000000000D0
:10042000000000000000000000000000818C44007B
:10043000358B440000000000ED8B4400792145001D
:10044000F18F4400F18F4400F18F4400F18F44009C
:10045000F18F4400F18F4400F18F4400F18F44008C
:10046000F18F4400F18F4400F18F4400F18F44007C
:10047000F18F4400F18F4400F18F4400F18F44006C
:1007F000F18F4400F18F4400F18F440000000000AD
:1008000000000000000000000000000000000000E8
:1008100000000000000000000000000000000000D8
:1008200000000000000000000000000000000000C8
:1008300000000000000000000000000000000000B8
:101DD00000000000FF00000000FF00000000000005
:101DE000B9004200000000000000000000000000F8
:101DF00001000000000000110000001100000000C0
:101E000000000000000000000000000000000000D2
:101E10002000000080000000000000000000000022
:101E2000000000000001000040000000F804001164
:101E3000F80200117802001100000000000000000C
:101E40000000000000000000000000000000000092
:101E50000000000000000000000000000000000082
:101E60000000000000000000000000000000000072
:101E70000000000000000000000000000000000062
:101E80000000000000000000000000000000000052
:101E90000000000000000000000000000000000042
:101EA0000000000000000000000000000000000032
:101EB0000000000000000000000000000000000022
:101EC0000000000000000000000000000000000012
:101ED0000000000000000000000000000000000002
:101EE00000000000000000000000000000000000F2
:101EF00000000000000000000000000000000000E2
:101F000000000000000000000000000000000000D1
:101F10000000000000000000200000008000000021
:101F200000000000000000000000000000010000B0
:101F300040000000F8050011F8030011B80200117C
:101F40000000000000000000000000000000000091
:101F50000000000000000000000000000000000081
:101F60000000000000000000000000000000000071
:101F70000000000000000000000000000000000061
:101F80000000000000000000000000000000000051
:101F90000000000000000000000000000000000041
:101FA0000000000000000000000000000000000031
:101FB0000000000000000000000000000000000021
:101FC0000000000000000000000000000000000011
:101FD0000000000000000000000000000000000001
:101FE00000000000000000000000000000000000F1
:101FF00000000000000000000000000000000000E1
:10200000000000000000000000000000200200119D
:102010004402001100000000000000000100000068
:1020200034CC49000800001100000000000000004E
:1020300000000000000000000000000000000000A0
:10204000010000002CCC490010010011010000002B
:102050000000000000000000000000000000000080
:102060000000000000000000000000000000000070
:102070000000000000000000000000000000000060
:1020800090F800F06DE9024520F007016FF0000CB8
:1020900010F0070491F820F040F049804FF0000460
:1020A0006FF00700D1E9002391F840F000F108003B
:1020B00082FA4CF2A4FA8CF283FA4CF3A2FA8CF373
:1020C0004BBBD1E9022382FA4CF200F10800A4FADA
:1020D0008CF283FA4CF3A2FA8CF3E3B9D1E904232E
:1020E00082FA4CF200F10800A4FA8CF283FA4CF365
:1020F000A2FA8CF37BB9D1E9062301F1200182FA1F
:102100004CF200F10800A4FA8CF283FA4CF3A2FA24
:102110008CF3002BC6D0002A04BF04301A4612BA32
:10212000B2FA82F2FDE8024500EBD2007047D1E935
:10213000002304F00305C4F100004FEAC50514F0C4
:10214000040F91F840F00CFA05F562EA05021CBF95
:1021500063EA050362464FF00004A9E700000000AF
:10216000A2EB0300704700BF02780B78012A28BF5A
:102170009A42F5D16DE9044540EA0104CDE90267D0
:102180006FF0000C4FEA447212B380EA010414F0BD
:10219000070F6AD100F0070420F0070004F00305E0
:1021A00021F007014FEAC505F0E8042314F0040FFD
:1021B000F1E804670CFA05F462EA040266EA040630
:1021C0000AD063EA0403624667EA0407664603E04E
:1021D000F0E80423F1E8046782FA4CF582EA060489
:1021E000A4FA8CF46CBB83FA4CF583EA0705A5FAD4
:1021F0008CF595B950E9022351E9026782FA4CF552
:1022000082EA0604A4FA8CF483FA4CF583EA070503
:10221000A5FA8CF52543DBD09CB92DBAB5FA85F427
:1022200024F0070427FA04F1DDE9026723FA04F336
:1022300003F0FF0001F0FF01FDE80445A0EB010001
:10224000704724BAB4FA84F424F0070426FA04F19F
:10225000DDE9026722FA04F202F0FF0001F0FF015B
:10226000FDE80445A0EB0100704714F0030F3CD1DA
:1022700010F0030428D150F8082B51F8083B82FADB
:102280004CF582EA0305A5FA8CF55DB950F8042CEB
:1022900051F8043C82FA4CF582EA0305A5FA8CF564
:1022A000002DE8D02DBAB5FA85F424F0070423FAFE
:1022B00004F122FA04F202F0FF0001F0FF01FDE850
:1022C0000445A0EB010070474FEAC40420F003006E
:1022D00050F8082B21F0030151F8083B0CFA04F4E4
:1022E00062EA040263EA0403C9E710F003041AD0A7
:1022F000A1EB040120F00300E40750F8042B06D002
:102300000FD28B785FFAA2F4E41A06D12BB1CB7806
:102310005FFAB2F4E41A00D11BB920465DF8104B05
:10232000704701F1040150F8042BCC0721F00301A0
:1023300051F8043B48D824D222F07F4482FA4CF56D
:1023400094EA1325A5FA8CF50AD165B951F8043B36
:1023500084EA0204B4EB036F0ED150F8042BEBE7D0
:102360004FEA132355E035F07F454DD10878FDE85D
:102370000445C0F1000070474FEA126203F0FF030A
:1023800047E002EA1C4482FA4CF594EA1345A5FAA8
:102390008CF50AD165B951F8043B84EA0204B4EB28
:1023A000034F0CD150F8042BEBE74FEA134330E016
:1023B00015EA1C4528D10B884FEA124229E04FEA62
:1023C000124203EA1C4324E002F0FF0482FA4CF5B7
:1023D00094EA1365A5FA8CF50AD165B951F8043B66
:1023E00084EA0204B4EB032F09D150F8042BEBE785
:1023F0004FEA13630DE015F0FF0F05D10B684FEAAC
:10240000122223F07F4304E04FF00000FDE8044572
:10241000704712BA1BBA82FA4CF482EA0304A4FA97
:102420008CF5B5FA85F402FA04F203FA04F34FEAE4
:102430001260FDE80445A0EB136070470000000047
:1024400001F0FF01102A2BDB10F0070F08D010F865
:10245000013B013A8B422DD010F0070F42B3F6D169
:10246000F0B441EA012141EA014122F007047FF082
:1024700000070023F0E80256083C85EA010586EAD9
:10248000010685FA47F5A3FA87F586FA47F6A5FA15
:1024900087F68EB9EED1F0BC01F0FF0102F0070221
:1024A00032B110F8013B013A83EA010313B1F8D1CC
:1024B0000020704701387047002D06BF35460338AD
:1024C000073815F0010F07D1013015F4807F02BFE6
:1024D000013015F4C03F0130F0BC0138704700BF37
:1024E00008B500202FF0E8F910F4807F01D100201A
:1024F00008BD0120FCE708B500202FF0DDF900F44D
:102500009070B0F5907F01D0002008BD0120FCE75D
:10251000034B1B680BB1012070470020704700BFC0
:102520005855402008B500202FF0C6F908BD10B559
:10253000FFF7D6FF012802D00024204610BD044634
:10254000054900202FF0B0F818B9044B1A1D1A6085
:10255000F3E70024F1E700BF5C55402058554020C8
:102560001BB108B51046984708BD70472DE9F047E4
:1025700080460F46164600202FF0B4F8FF2831D0D1
:102580000446C0EBC0054FEA051ADFF8709009EB6E
:10259000051570220021284655F01CFD124B49F804
:1025A0000A30C5F80880EF60104B03EB0413104AA3
:1025B000DA6096B10D49230101EB04120120C854E1
:1025C0000C4B536096602B46084A02EB04122146DE
:1025D00000202FF011F9BDE8F0872301034A002104
:1025E000D154F0E70448F6E70301A500404C412030
:1025F0008096980061254100F1D4D6330000402038
:102600002DE9F04780460F46164600202FF06AF865
:10261000FF2832D00446C0EBC0054FEA051ADFF8A8
:10262000709009EB051570220021284655F0D2FC68
:102630004FF4817349F80A30C5F808802F73104BA6
:1026400003EB04130F4ADA6096B10D49230101EB45
:1026500004120120C8540C4B536096602B46084A64
:1026600002EB0412214600202FF0C6F8BDE8F087E7
:102670002301034A0021D154F0E70448F6E700BFE4
:10268000404C41208096980061254100F1D4D6331A
:10269000000040201BB108B51046984708BD7047A0
:1026A0002DE9F84F81460F4690461E4600202FF038
:1026B00019F8FF2834D00446C0EBC0054FEA051BCB
:1026C000DFF870A00AEB051570220021284655F0AE
:1026D00081FC4FF440734AF80B3085F80890C5F838
:1026E0000C802F610F4B03EB04130F4ADA6096B195
:1026F0000C49230101EB04120120C8540B4B536019
:1027000096602B46074A02EB0412214600202FF068
:1027100073F8BDE8F88F2301024A0021D154F0E795
:102720000348F6E7404C41208096980095264100EA
:10273000F1D4D6330000402008B513460A460146BE
:102740000020FFF7ADFF08BD08B513460A46014655
:102750000120FFF7A5FF08BD08B513460A4601464C
:102760000220FFF79DFF08BD1BB108B51046984732
:1027700008BD704782B02DE9F0478046894608A918
:1027800081E80C00139D00202EF0ACFFFF284DD0F7
:102790000746C0EBC0044FEA041A254E06EB0414AA
:1027A00070220021204655F015FC40F2062346F821
:1027B0000A3084F80A8084F8089004F10C0308AA0F
:1027C00007CA83E807000B9BA3610D9B23629DF85A
:1027D0003830E3720C9B63620F9B2363109B63632F
:1027E000119BA362129BE36200232377114B03EB3F
:1027F0000713114ADA60A5B10E493B0101EB07123C
:102800000120C8540D4B536095602346094A02EBE2
:102810000712394600202EF0EFFFBDE8F04702B066
:1028200070473B01034A0021D154EEE70448F4E726
:1028300000004020404C41208096980069274100CC
:10284000F1D4D6332DE9F04184B004AC04E90F0093
:10285000109D00202EF046FFFF2843D00746C0EB16
:10286000C0044FEA0418204E06EB04147022002125
:10287000204655F0AFFB40F2072346F8083004F13C
:10288000080C04AB13E90F008CE80F009DF828300A
:1028900023760B9BE3610C9B23620F9BE3620D9BF2
:1028A00063620E9BA362114B03EB0713104ADA60BD
:1028B0009DB10E493B0101EB07120120C8540D4B9D
:1028C000536095602346094A02EB071239460020FF
:1028D0002EF092FF04B0BDE8F0813B01034A0021D5
:1028E000D154EFE70448F5E700004020404C412078
:1028F0008096980069274100F1D4D63382B02DE943
:10290000F84F814688460AA981E80C000F9E9DF881
:1029100040A0159D00202EF0E5FEFF287FD0044644
:10292000C0EBC0033F4F07EB03177022002138466E
:1029300055F050FBBAF1000F46D00E9A7A62002291
:102940003A77384BC4EBC40C4FEA0C1203EB0C1C67
:1029500040F2062199508CF80A908CF808800CF10E
:102960000C030AAA07CA83E807000D9BCCF81830AD
:10297000CCF820608CF80BA0119BCCF83030129B67
:10298000CCF83430139BCCF82830149BCCF82C3086
:10299000254B03EB0413254ADA60002D3AD0224977
:1029A000230101EB04120120C854214B53609560B0
:1029B0003B461D4A02EB0412214600202EF01CFF6C
:1029C000BDE8F84F02B07047DFF86CB00023CBF8D9
:1029D0000030CBF80430CBF80830CBF80C30CBF813
:1029E0001030CBF814300E9BCBF80430CBF80060DD
:1029F00046F08043CBF800301821584636F0B4FB3F
:102A0000C4EBC402074B03EB0213C3F824B001224A
:102A10001A7796E72301044A0021D154C8E70548F4
:102A2000CEE700BF00004020404C41208096980037
:102A300069274100F1D4D6334055402030B58FB0DE
:102A40000D46129C0DF12C0C00210B910C910D9157
:102A50004FF0810E8DF82CE08DF830208DF831305C
:102A60000D941A9B0993199B0893189B0793179B26
:102A70000693169B05939DF854300493149B03937F
:102A8000139B0293019500949CE80C00FFF772FEE3
:102A90000FB030BD10B58EB00C460DF12C0C0021DE
:102AA0000B910C910D914FF0800E8DF82CE08DF86C
:102AB0003040169C0994159C0894149C0794139C10
:102AC0000694129C05949DF844400494109C039431
:102AD0000293019200919CE80C00FFF70FFF0EB0EB
:102AE00010BD10B58EB00C460DF12C0C00210B91D1
:102AF0000C910D914FF0940E8DF82CE08DF8304034
:102B00000D92159C09940891149C07940691139CAE
:102B100005949DF848400494119C0394109C0294E1
:102B2000019300929CE80C00FFF7E8FE0EB010BD88
:102B300010B58EB00C460DF12C0C00210B910C91B0
:102B40000D914FF0930E8DF82CE08DF83040149CD1
:102B500009940891139C07940691129C05949DF882
:102B600044400494109C03940293019200919CE8C9
:102B70000C00FFF7C3FE0EB010BD10B58CB00DF108
:102B8000200C0024089409940A940B9490248DF846
:102B90002040109C06940E9C05940F9C0494039274
:102BA0000293019100909CE80F00FFF74BFE0CB0E0
:102BB00010BD10B58CB00DF1200C002408940994C0
:102BC0000A940B9492248DF82040109C06940E9C3D
:102BD00005940F9C049403920293019100909CE849
:102BE0000F00FFF72FFE0CB010BD10B58CB00DF12B
:102BF000200C0024089409940A940B9491248DF8D5
:102C000020408DF824000E980A900B93139B069396
:102C1000119B0593129B04930F9B0393109B0293AC
:102C2000019200919CE80F00FFF70CFE0CB010BD64
:102C30001BB108B51046984708BD70472DE9F84FFD
:102C400081460F4690461E4600202EF04BFDFF2881
:102C500033D00446C0EBC0054FEA051BDFF874A073
:102C60000AEB051570220021284655F0B3F9144BE4
:102C70004AF80B30A5F80890C5F80C802F61114B6D
:102C800003EB0413104ADA6096B10E49230101EBFD
:102C900004120120C8540D4B536096602B46094A1C
:102CA00002EB0412214600202EF0A6FDBDE8F88FAD
:102CB0002301044A0021D154F0E70548F6E700BF9C
:102CC0000200A500404C412080969800312C410024
:102CD000F1D4D633000040202DE9F84F81460F464D
:102CE00090461E4600202EF0FDFCFF2833D00446FF
:102CF000C0EBC0054FEA051BDFF870A00AEB051515
:102D000070220021284655F065F901234AF80B305E
:102D1000A5F80890C5F80C802F61104B03EB041345
:102D20000F4ADA6096B10D49230101EB041201202C
:102D3000C8540C4B536096602B46084A02EB0412B1
:102D4000214600202EF058FDBDE8F88F2301034AEC
:102D50000021D154F0E70448F6E700BF404C412081
:102D600080969800312C4100F1D4D63300004020E9
:102D700008B50B46082201460120FFF75FFF08BD9A
:102D800008B50B46802201461420FFF757FF08BD07
:102D900008B50B46802201461420FFF79DFF08BDB1
:102DA00008B50B46042201460E20FFF747FF08BD79
:102DB00008B50B46042201460E20FFF78DFF08BD23
:102DC00008B50B46042201460B20FFF785FF08BD1E
:102DD00008B50B46102201460B20FFF72FFF08BD58
:102DE00008B50B46012201460A20FFF775FF08BD12
:102DF00008B50B46012201460A20FFF71FFF08BD58
:102E000008B50B46012201460C20FFF717FF08BD4D
:102E100008B50B46012201460C20FFF75DFF08BDF7
:102E200030B3F8B50268144B9A4201D01348F8BD8C
:102E300000202EF057FC0446FF281BD0C0EBC00535
:102E40002F010F4E06EB051570220021284655F084
:102E5000C1F85123F3510B4B210103EB0412002065
:102E60005854094BD3602B4621462EF0C5FCDEE7B3
:102E7000024870470148DAE75AA5A55AF1D4D6337B
:102E800000004020404C412080969800024B1A6080
:102E9000024B01221A7070470020402074554020D8
:102EA0001BB108B51046984708BD70472DE9F84397
:102EB000214B1B6813F4803F39D007460E46002093
:102EC0002EF010FC0446FF2833D0C0EBC0054FEABB
:102ED0000519DFF8748008EB0515702200212846DB
:102EE00055F078F8052348F8093000232B722F613C
:102EF000124B03EB041344F62062DA6096B10F49DB
:102F0000230101EB04120120C8540D4B536096605D
:102F10002B460A4A02EB0412214600202EF06CFCDC
:102F2000BDE8F8832301054A0021D154F0E70548A4
:102F3000F6E70448F4E700BF00C02A40404C4120B7
:102F4000A12E4100F1D4D63300004020214B224A6B
:102F50001A60224B1B6813F4803F03D1204B0122DF
:102F60001A7070472DE9F041064600202EF0BAFB9A
:102F70000446FF282AD0C0EBC0054FEA0518194FB8
:102F800007EB051570220021284655F023F805238C
:102F900047F80830002028722E61134B210103EB03
:102FA000041202265E5444F62063D3600F4B536034
:102FB0002B4621462EF020FC064B18600C4B984205
:102FC00002D0074B01221A70BDE8F081044B0122A8
:102FD0001A70F9E700204020F1D4D63300C02A400F
:102FE0007455402000004020404C41208D2E41006F
:102FF00033AAA55510B5044600206CF04AFB054BDA
:10300000187800B910BD00221A70034B1B682360AA
:103010000120F7E774554020002040201BB108B57F
:103020001046984708BD70472DE9F84F81468846FD
:1030300017461E4600202EF055FBFF2841D00546BE
:10304000C0EBC0044FEA041BDFF88CA00AEB0414A9
:1030500070220021204654F0BDFF40F201534AF88F
:103060000B300023237284F80990C4F80C80276188
:1030700066610A9BA3610B9BE3610C9B23840D9B00
:103080006384114B03EB0513104ADA600E9B9BB16E
:103090000D492B0101EB05120120C8540C4B536064
:1030A0000E9B93602346084A02EB05122946002036
:1030B0002EF0A2FBBDE8F88F2B01034A0021D1546A
:1030C000F0E70448F6E700BF404C412080969800A6
:1030D0001D304100F1D4D633000040202DE9F047E7
:1030E00080460F46164600202EF0FCFAFF2834D00A
:1030F0000446C0EBC0054FEA051ADFF8749009EBEF
:10310000051570220021284654F064FF40F2025356
:1031100049F80A3085F808800FB130226A81104BD7
:1031200003EB04130F4ADA6096B10D49230101EB5A
:1031300004120120C8540C4B536096602B46084A79
:1031400002EB0412214600202EF056FBBDE8F0876A
:103150002301034A0021D154F0E70448F6E700BFF9
:10316000404C4120809698001D304100F1D4D63368
:10317000000040202DE9F04780460F46164600200B
:103180002EF0B0FAFF2832D00446C0EBC0054FEA5B
:10319000051ADFF8709009EB05157022002128460A
:1031A00054F018FF40F2035349F80A3085F80880BC
:1031B000EF60104B03EB04130F4ADA6096B10D4930
:1031C000230101EB04120120C8540C4B536096609C
:1031D0002B46084A02EB0412214600202EF00CFB7D
:1031E000BDE8F0872301034A0021D154F0E70448E9
:1031F000F6E700BF404C4120809698001D3041000A
:10320000F1D4D633000040201BB108B510469847D2
:1032100008BD70472DE9F84F80460F4691461E467F
:1032200000202EF05FFAFF2839D00446C0EBC0051D
:103230004FEA051BDFF878A00AEB05157022002184
:10324000284654F0C7FE06234AF80B30C5F80C9008
:1032500085F808806F720A9BEB612EB12B46103304
:1032600096E8070083E807000B9B9BB10D492301FB
:1032700001EB04120120C8540B4B53600B9B93606D
:103280002B46084A02EB0412214600202EF0B4FA25
:10329000BDE8F88F2301034A0021D154F0E7034829
:1032A000F6E700BF404C412009324100F1D4D6334B
:1032B000000040202DE9F84F8146884616461F46FB
:1032C00000202EF00FFAFF2831D00446C0EBC005D5
:1032D0004FEA051BDFF868A00AEB051570220021F4
:1032E000284654F077FE07234AF80B30C5F80C90B7
:1032F000C5F810802E816F810A9B9BB10D49230177
:1033000001EB04120120C8540B4B53600A9B9360DD
:103310002B46084A02EB0412214600202EF06CFADC
:10332000BDE8F88F2301034A0021D154F0E7034898
:10333000F6E700BF404C412009324100F1D4D633BA
:103340000000402081F0004102E000BF83F0004314
:1033500030B54FEA41044FEA430594EA050F08BF30
:1033600090EA020F1FBF54EA000C55EA020C7FEAF4
:10337000645C7FEA655C00F0E2804FEA5454D4EB71
:103380005555B8BF6D420CDD2C4480EA020281EA3B
:10339000030382EA000083EA010180EA020281EA73
:1033A0000303362D88BF30BD11F0004F4FEA0131C5
:1033B0004FF4801C4CEA113102D0404261EB4101D4
:1033C00013F0004F4FEA03334CEA133302D052425A
:1033D00063EB430394EA050F00F0A780A4F1010416
:1033E000D5F1200E0DDB02FA0EFC22FA05F2801850
:1033F00041F1000103FA0EF2801843FA05F3594136
:103400000EE0A5F120050EF1200E012A03FA0EFCB4
:1034100028BF4CF0020C43FA05F3C01851EBE371DE
:1034200001F0004507D54FF0000EDCF1000C7EEBFB
:1034300000006EEB0101B1F5801F1BD3B1F5001F39
:103440000CD349085FEA30004FEA3C0C04F1010458
:103450004FEA445212F5800F80F09A80BCF1004F81
:1034600008BF5FEA500C50F1000041EB045141EA03
:10347000050130BD5FEA4C0C404141EB0101013CCC
:1034800028BFB1F5801FE9D291F0000F04BF0146BB
:103490000020B1FA81F308BF2033A3F10B03B3F18D
:1034A00020020CDA0C3208DD02F1140CC2F10C021D
:1034B00001FA0CF021FA02F10CE002F11402D8BF7B
:1034C000C2F1200C01FA02F120FA0CFCDCBF41EA47
:1034D0000C019040E41AA2BF01EB0451294330BD16
:1034E0006FEA04041F3C1CDA0C340EDC04F11404F3
:1034F000C4F1200220FA04F001FA02F340EA0300CA
:1035000021FA04F345EA030130BDC4F10C04C4F10F
:10351000200220FA02F001FA04F340EA03002946EF
:1035200030BD21FA04F0294630BD94F0000F83F439
:10353000801306BF81F480110134013D4EE77FEA1C
:10354000645C18BF7FEA655C29D094EA050F08BF68
:1035500090EA020F05D054EA000C04BF1946104649
:1035600030BD91EA030F1EBF0021002030BD5FEA8D
:10357000545C05D14000494128BF41F0004130BDB5
:1035800014F580043CBF01F5801130BD01F0004509
:1035900045F0FE4141F470014FF0000030BD7FEA7C
:1035A000645C1ABF194610467FEA655C1CBF0B4677
:1035B000024650EA013406BF52EA033591EA030F8E
:1035C00041F4002130BD00BF90F0000F04BF002186
:1035D000704730B54FF4806404F132044FF00005B9
:1035E0004FF0000150E700BF90F0000F04BF002132
:1035F000704730B54FF4806404F1320410F0004598
:1036000048BF40424FF000013EE700BF42004FEA92
:10361000E2014FEA31014FEA02701FBF12F07F430F
:1036200093F07F4F81F06051704732F07F4208BFC6
:10363000704793F07F4F04BF41F40021704730B5CD
:103640004FF4607401F0004521F000411CE700BF19
:1036500050EA010208BF704730B54FF000050AE09C
:1036600050EA010208BF704730B511F0004502D59D
:10367000404261EB41014FF4806404F132045FEA9F
:10368000915C3FF4D8AE4FF003025FEADC0C18BF48
:1036900003325FEADC0C18BF033202EBDC02C2F13A
:1036A000200300FA03FC20FA02F001FA03FE40EACC
:1036B0000E0021FA02F11444BDE600BF70B54FF0D0
:1036C000FF0C4CF4E06C1CEA11541DBF1CEA1355AE
:1036D00094EA0C0F95EA0C0F00F0DEF82C4481EA16
:1036E000030621EA4C5123EA4C5350EA013518BF36
:1036F00052EA033541F4801143F4801338D0A0FB23
:1037000002CE4FF00005E1FB02E506F00042E0FBCF
:1037100003E54FF00006E1FB03569CF0000F18BFD5
:103720004EF0010EA4F1FF04B6F5007F64F540747D
:1037300004D25FEA4E0E6D4146EB060642EAC62110
:1037400041EA55514FEAC52040EA5E504FEACE2E7D
:10375000B4F1FD0C88BFBCF5E06F1ED8BEF1004F80
:1037600008BF5FEA500E50F1000041EB045170BDFC
:1037700006F0004646EA010140EA020081EA030140
:10378000B4EB5C04C2BFD4EB0C0541EA045170BD3C
:1037900041F480114FF0000E013C00F3AB8014F1B6
:1037A000360FDEBF002001F0004170BDC4F10004FF
:1037B000203C35DA0C341BDC04F11404C4F1200580
:1037C00000FA05F320FA04F001FA05F240EA0200DB
:1037D00001F0004221F0004110EBD37021FA04F611
:1037E00042EB06015EEA430E08BF20EAD37070BDCB
:1037F000C4F10C04C4F1200500FA04F320FA05F02A
:1038000001FA04F240EA020001F0004110EBD3702B
:1038100041F100015EEA430E08BF20EAD37070BD9B
:10382000C4F1200500FA05F24EEA020E20FA04F374
:1038300001FA05F243EA020321FA04F001F0004123
:1038400021FA04F220EA020000EBD3705EEA430E94
:1038500008BF20EAD37070BD94F0000F0FD101F0C3
:103860000046400041EB010111F4801F08BF013CFC
:10387000F7D041EA060195F0000F18BF704703F03A
:103880000046520043EB030313F4801F08BF013DC1
:10389000F7D043EA0603704794EA0C0F0CEA13557D
:1038A00018BF95EA0C0F0CD050EA410618BF52EA37
:1038B0004306D1D181EA030101F000414FF000003D
:1038C00070BD50EA410606BF1046194652EA43064B
:1038D00019D094EA0C0F02D150EA013613D195EABF
:1038E0000C0F05D152EA03361CBF104619460AD107
:1038F00081EA030101F0004141F0FE4141F4700111
:103900004FF0000070BD41F0FE4141F4780170BD00
:1039100070B54FF0FF0C4CF4E06C1CEA11541DBF65
:103920001CEA135594EA0C0F95EA0C0F00F0A7F867
:10393000A4EB050481EA030E52EA03354FEA013194
:1039400000F088804FEA03334FF0805545EA1313A7
:1039500043EA12634FEA022245EA111545EA10656F
:103960004FEA00260EF000419D4208BF964244F106
:10397000FD0404F5407402D25B084FEA3202B61A25
:1039800065EB03055B084FEA32024FF480104FF4F9
:10399000002CB6EB020E75EB030E22BFB61A75466D
:1039A00040EA0C005B084FEA3202B6EB020E75EB00
:1039B000030E22BFB61A754640EA5C005B084FEA68
:1039C0003202B6EB020E75EB030E22BFB61A754635
:1039D00040EA9C005B084FEA3202B6EB020E75EB40
:1039E000030E22BFB61A754640EADC0055EA060E01
:1039F00018D04FEA051545EA16754FEA06164FEA44
:103A0000C30343EA52734FEAC2025FEA1C1CC0D1EF
:103A100011F4801F0BD141EA00014FF000004FF07C
:103A2000004CB6E711F4801F04BF01430020B4F13D
:103A3000FD0C88BFBCF5E06F3FF6AFAEB5EB030CF5
:103A400004BFB6EB020C5FEA500C50F1000041EBF2
:103A5000045170BD0EF0004E4EEA113114EB5C04BF
:103A6000C2BFD4EB0C0541EA045170BD41F4801192
:103A70004FF0000E013C90E645EA060E8DE60CEA9A
:103A8000135594EA0C0F08BF95EA0C0F3FF43BAFB7
:103A900094EA0C0F0AD150EA01347FF434AF95EA6E
:103AA0000C0F7FF425AF104619462CE795EA0C0F52
:103AB00006D152EA03353FF4FDAE1046194622E71F
:103AC00050EA410618BF52EA43067FF4C5AE50EAF9
:103AD00041047FF40DAF52EA43057FF4EBAE12E7E9
:103AE0004FEA4102B2F1E04324BFB3F5001CDCF120
:103AF000FE5C0DD901F0004C4FEAC0024CEA507058
:103B0000B2F1004F40EB830008BF20F00100704786
:103B100011F0804F21D113F13872BCBF01F0004089
:103B2000704741F480114FEA5252C2F11802C2F1BB
:103B3000200C10FA0CF320FA02F018BF40F001003C
:103B40004FEAC1234FEAD32303FA0CFC40EA0C00EE
:103B500023FA02F34FEA4303CCE77FEA625307D12B
:103B600050EA01331EBF4FF0FE4040F44000704762
:103B700001F0004040F0FE4040F40000704700BFFC
:103B800080F0004002E000BF81F0004142001FBF12
:103B90005FEA410392EA030F7FEA226C7FEA236C1B
:103BA0006AD04FEA1262D2EB1363C1BFD218414010
:103BB00048404140B8BF5B42192B88BF704710F0A6
:103BC000004F40F4000020F07F4018BF404211F049
:103BD000004F41F4000121F07F4118BF494292EAB1
:103BE000030F3FD0A2F1010241FA03FC10EB0C00DD
:103BF000C3F1200301FA03F100F0004302D549426A
:103C000060EB4000B0F5000F13D3B0F1807F06D316
:103C100040084FEA310102F10102FE2A51D2B1F10E
:103C2000004F40EBC25008BF20F0010040EA030003
:103C30007047490040EB0000013A28BFB0F5000F83
:103C4000EDD2B0FA80FCACF1080CB2EB0C0200FA39
:103C50000CF0AABF00EBC25052421843BCBFD04088
:103C60001843704792F0000F81F4000106BF80F402
:103C700000000132013BB5E74FEA41037FEA226CC5
:103C800018BF7FEA236C21D092EA030F04D092F090
:103C9000000F08BF0846704790EA010F1CBF0020C4
:103CA000704712F07F4F04D1400028BF40F0004021
:103CB000704712F100723CBF00F50000704700F041
:103CC000004343F0FE4040F4000070477FEA226268
:103CD00016BF08467FEA23630146420206BF5FEA39
:103CE000412390EA010F40F4800070474FF0000339
:103CF00004E000BF10F0004348BF40425FEA000C00
:103D000008BF704743F0964301464FF000001CE0A7
:103D100050EA010208BF70474FF000030AE000BFFD
:103D200050EA010208BF704711F0004302D540423B
:103D300061EB41015FEA010C02BF844601460020AD
:103D400043F0B64308BFA3F18053A3F50003BCFAC8
:103D50008CF2083AA3EBC25310DB01FA02FC634475
:103D600000FA02FCC2F12002BCF1004F20FA02F27C
:103D700043EB020008BF20F00100704702F120026F
:103D800001FA02FCC2F1200250EA4C0021FA02F2D0
:103D900043EB020008BF20EADC7070477BB972B9C0
:103DA0000029BEBF00204FF0004106E008BF0028F8
:103DB0001CBF6FF000414FF0FF3000F075B8ADF15F
:103DC000080C6DE904CE002909DB002B1ADB00F09A
:103DD0003CFADDF804E0DDE9022304B0704740421C
:103DE00061EB4101002B1BDB00F02FFADDF804E052
:103DF000DDE9022304B0404261EB4101524263EB32
:103E000043037047524263EB430300F01EFADDF8B0
:103E100004E0DDE9022304B0404261EB4101704758
:103E2000524263EB430300F010FADDF804E0DDE9F1
:103E3000022304B0524263EB4303704753B94AB9BB
:103E4000002908BF00281CBF4FF0FF314FF0FF30A2
:103E500000F02AB8ADF1080C6DE904CE00F0F5F9D8
:103E6000DDF804E0DDE9022304B07047D0B50C4B67
:103E7000002206460F46FFF721FC00F09FF804469B
:103E8000FFF7A2FB074B0022FFF718FC02460B4688
:103E900030463946FFF75AFA00F090F82146D0BD77
:103EA0000000F03D0000F041704700BF4FF0FF3CC4
:103EB00006E000BF4FF0010C02E000BF4FF0010C24
:103EC0004DF804CD4FEA410C7FEA6C5C4FEA430C9D
:103ED00018BF7FEA6C5C1BD001B050EA410C0CBFEC
:103EE00052EA430C91EA030F02BF90EA020F00204E
:103EF000704710F1000F91EA030F58BF994208BFB5
:103F000090422CBFD8176FEAE37040F00100704771
:103F10004FEA410C7FEA6C5C02D150EA013C07D1C8
:103F20004FEA430C7FEA6C5CD6D152EA033CD3D013
:103F30005DF8040B704700BF8446104662468C460D
:103F40001946634600E000BF01B5FFF7B7FF002840
:103F500048BF10F1000F01BD4DF808EDFFF7F4FF69
:103F60000CBF012000205DF808FB00BF4DF808EDF4
:103F7000FFF7EAFF34BF012000205DF808FB00BF17
:103F80004DF808EDFFF7E0FF94BF012000205DF839
:103F900008FB00BF4DF808EDFFF7CEFF94BF0120EE
:103FA00000205DF808FB00BF4DF808EDFFF7C4FFE7
:103FB00034BF012000205DF808FB00BF4A0011D289
:103FC00012F5001211D20DD56FF47873B3EB625273
:103FD0000ED44FEAC12343F0004343EA505323FA7F
:103FE00002F070474FF00000704750EA013002D1F4
:103FF0004FF0FF3070474FF000007047844641EAB1
:10400000000313F003036DD1403A41D351F8043B50
:1040100040F8043B51F8043B40F8043B51F8043BA2
:1040200040F8043B51F8043B40F8043B51F8043B92
:1040300040F8043B51F8043B40F8043B51F8043B82
:1040400040F8043B51F8043B40F8043B51F8043B72
:1040500040F8043B51F8043B40F8043B51F8043B62
:1040600040F8043B51F8043B40F8043B51F8043B52
:1040700040F8043B51F8043B40F8043B51F8043B42
:1040800040F8043B51F8043B40F8043B403ABDD2B1
:10409000303211D351F8043B40F8043B51F8043B53
:1040A00040F8043B51F8043B40F8043B51F8043B12
:1040B00040F8043B103AEDD20C3205D351F8043BE2
:1040C00040F8043B043AF9D2043208D0D2071CBFAE
:1040D00011F8013B00F8013B01D30B8803806046D7
:1040E000704700BF082A13D38B078DD010F003034D
:1040F0008AD0C3F10403D21ADB071CBF11F8013BBD
:1041000000F8013B80D331F8023B20F8023B7BE70B
:10411000043AD9D3013A11F8013B00F8013BF9D236
:104120000B7803704B7843708B78837060467047D0
:104130004FEA410C7FEA6C5C02D150EA013C0AD1A3
:104140004FEA430C7FEA6C5C02D152EA033C02D195
:104150004FF0000070474FF0010070474FEA4102F6
:1041600012F5001215D211D56FF47873B3EB6252C9
:1041700012D94FEAC12343F0004343EA505311F0F0
:10418000004F23FA02F018BF404270474FF0000082
:10419000704750EA013005D111F0004008BF6FF0C0
:1041A000004070474FF00000704700BF08B5002086
:1041B0002DF082FB00F4C050B0F5006F01D000205C
:1041C00008BD0120FCE708B500202DF075FB00F4C8
:1041D000C050B0F5805F01D0002008BD0120FCE791
:1041E00008B500202DF068FB10F4C05F01D000205E
:1041F00008BD0120FCE7430803F05533C01A00F066
:104200003333800800F03330184400EB10104FF0C7
:10421000013300F00F305843000E704738B50022CC
:10422000002304460D46FFF7A1FE28B92046294683
:10423000BDE83840FFF71ABE204605F10041FFF700
:1042400015FE404261EB410138BD2DE9F04786463D
:104250008C460846089E154674461946002B40F0C9
:10426000C2808542B2FA82F245D94AB1C2F1200336
:1042700000FA02FC2EFA03F3954043EA0C0C94403A
:104280004FEA154EA8B2BCFBFEF8230C0EFB18CC6F
:1042900008FB00F943EA0C43994528D9EB1808F1CB
:1042A000FF3704D2994502D9A8F102072B44A3EBAA
:1042B0000903A4B2B3FBFEFC0EFB1C330CFB00F0A5
:1042C00044EA0344A04214D92C190CF1FF3304D260
:1042D000A04202D9ACF102032C44241A43EA07405D
:1042E0001EB1D440002334607360BDE8F0874746B8
:1042F000DDE76346F1E792BB431B01214FEA154E10
:10430000AFB2B3FBFEFC200C0EFB1C330CFB07F81A
:1043100040EA0343984562D9EB180CF1FF3004D210
:10432000984502D9ACF102002B44A3EB0803A4B2D8
:10433000B3FBFEFC0EFB1C330CFB07F744EA034403
:10434000A7424ED92C190CF1FF3304D2A74202D94F
:10435000ACF102032C44E41B43EA0040C0E7C2F185
:10436000200320FA03F1954090402EFA03F3034313
:104370004FEA154EAFB2B1FBFEFC0EFB1C10190C40
:104380000CFB07F841EA0041884504FA02F422D9FF
:1043900069180CF1FF3004D2884502D9ACF1020053
:1043A0002944A1EB08019BB2B1FBFEFC0EFB1C11E2
:1043B0000CFB07F743EA01439F420ED9EB180CF1BF
:1043C000FF3104D29F4202D9ACF102012B44DB1B26
:1043D00041EA004192E76046E3E76146F7E760465D
:1043E000A3E76346B7E7834206D916B9002108461A
:1043F0007BE7C6E900E0F9E7B3FA83F78FB98342B8
:1044000001D3724508D8BEEB020460EB0303012020
:104410009C461EB9002168E73846FAE7C6E9004C19
:10442000F8E7C7F1200CBB4022FA0CF41C432EFA2B
:104430000CF120FA0CF3B84001434FEA14490EFA8C
:1044400007F5B3FBF9F81FFA84FE09FB18300B0CD3
:1044500008FB0EFA43EA00439A4502FA07F240D9F4
:10446000E31808F1FF3004D29A4502D9A8F10200FE
:104470002344A3EB0A0389B2B3FBF9F809FB183311
:1044800008FB0EFE41EA03418E452CD9611808F164
:10449000FF3304D28E4502D9A8F10203214443EA36
:1044A0000040A0FB0298A1EB0E014145CE464346D9
:1044B00002D306D14D4504D2B9EB020E68EB0403DA
:1044C0000138002EA6D0B5EB0E0261EB030101FA14
:1044D0000CFC22FA07F34CEA0303F940C6E9003169
:1044E00098E74046C5E74346D9E7000000000000D2
:1044F0002DE9F04F8FB00B900C46154673F076F80F
:104500000022431880F0858013444F4FA7FB032CF3
:104510002CF0030202EB9C029B1AC01A61F100020C
:104520004FF0CC3100FB01F107FB0211A0FB0703A8
:104530001944400840EAC1704F088046012C6AD0F7
:104540006C6821464148FDF70FFE28B121464048DE
:10455000FDF70AFE002867D139A3D3E900234046BE
:104560003946FFF71BFC0C900E4635A3D3E9002318
:1045700040463946FFF712FC15461C46354A0023D3
:1045800028462146FFF70AFC07460D91314A0023D1
:1045900028462146FFF702FC15461C464EF66022CF
:1045A000002328462146FFF7F9FB814688464EF650
:1045B0006022002328462146FFF7F0FB15461C46E3
:1045C0004FF47A72002328462146FFF7E7FB834623
:1045D0008A464FF47A72002328462146FFF7DEFB15
:1045E000CDE90823CDF818B0CDF81CA0CDF8109077
:1045F000CDF8148002970D9B03930C9B00930196BA
:10460000154A08210B986CF067FB00200FB0BDE83D
:10461000F08F012278E700900197104A08210B984B
:104620006CF05AFB0020F1E723460D4A01210B985C
:104630006CF052FB6FF00400E8E700BFAFF30080BE
:10464000005C260500000000CDCCCCCCE09F4900EA
:10465000E49F490080EE360008A04900CC9F490045
:10466000F09F49000000000070B584B001284BD1D4
:104670000C468A683E4B9A424DD872F0B7FF3D4BCC
:10468000A0FB03C003FB0100236861683A4AA3FB57
:10469000023502FB0155A2689B1845EBE275B3EBAE
:1046A0000C0465EB000530A3D3E90023204629461E
:1046B000FFF774FBCDE900012BA3D3E900232046CB
:1046C0002946FFF76BFB0292EFF31186102383F369
:1046D0001288BFF36F8F294850F000FB10B3274DAD
:1046E000284650F025FB264C04AB13E90F0084E864
:1046F0000F00284650F002FB18B386F31188BFF371
:104700006F8F002004B070BD6EF08AF8162303602E
:104710004FF0FF30F6E76EF083F8162303604FF09A
:10472000FF30EFE7174C88232246174917486AF0F5
:1047300020FD124916486AF01CFD882120466AF0C7
:104740000FFD104C40F23113224612490F486AF017
:1047500010FD294610486AF00CFD40F23111204648
:104760006AF0FEFCAFF3008000CA9A3B0000000034
:10477000FFC99A3BA086010000CA9A3BE44C412045
:10478000A073402084594900B4594900C48A4800A4
:10479000CC594900E4594900FC5949000000000087
:1047A00030B589B00C9D00283FD00446002949D07F
:1047B000D0F8100110F0010F51D10020C4F8F8001A
:1047C000C4F8FC0004F58070C4F80001C4F80401CA
:1047D00004F58470C4F80801C4F80C01002D4BD016
:1047E000287900284AD10120C4F810019FED267BCA
:1047F0008DED067B002004900393029001900094BD
:10480000234B20464EF01AFE55B1296811B12046BF
:104810004EF0F0FC6B791BB1237B43F00103237353
:10482000204672F0E1FD09B030BD1A4C40F2DF23A2
:104830002246194919486AF09CFC40F2DF212046C3
:104840006AF08EFC134C4FF4387322461449134817
:104850006AF08FFC4FF4387120466AF081FC0D4CF1
:1048600040F2E12322460F490C486AF082FC40F2F4
:10487000E12120466AF074FC0120B5E740F2011006
:10488000B2E700BFAFF30080FFFFFFFFFFFFFFFFB6
:104890004D29460050484A0038494A00C48A480019
:1048A00040494A0048494A002DE9F04F2DED028B5E
:1048B000D3B00C46CDE9080192460B9358F040FB6B
:1048C000036813931846FDF7DBFBA38912901D06BE
:1048D00003D52369002B00F08A870023CDF810A0B0
:1048E000CDE92733CDE91533CDE917330E93149372
:1048F0000793049B9FEDA27B1B7829AA8DED107B6B
:1049000026929346002B00F0EB81DDF810A004E026
:104910001AF8013F002B00F01C81252BF8D1049BD5
:10492000BAEB030540F01A819AF80030002B00F032
:10493000D78100239AF801508DF87B3006930AF155
:10494000010A4FF0FF3903930AF1010AA5F1200390
:104950005A2B00F23B81DFE813F0A502390139013F
:104960009E023901390139016A00390139016602B3
:10497000780239017102850239017E025B005B0019
:104980005B005B005B005B005B005B005B00390170
:10499000390139013901390139013901CF013901B1
:1049A00034028700CF01CF01CF013901390139012C
:1049B0003901C20239013901B50039013901390122
:1049C0003E023901B00239013901010739013901CB
:1049D000390139013901390139013901CF01390171
:1049E00034028B00CF01CF01CF01F2028B00800097
:1049F0003901E8023901DA02B900C902800039013F
:104A00003E027D00250739013901280739017D0063
:104A1000A5F1300300221AF8015B02EB820203EBDE
:104A20004202A5F13003092BF5D906928EE7089DC5
:104A3000284658F085FA436817931846FDF720FB7F
:104A400018900446284658F07BFA83681593002C8A
:104A500040F070869AF8005076E7039B9AF8005071
:104A600043F0200303936FE7039B43F0100303938A
:104A7000039B9C0640F194810B9B073323F00703B3
:104A80001A46596852F8083B0B920A460029C0F2B0
:104A9000BB85B9F1FF3F00F0F587039921F080064F
:104AA00053EA020100F05A850A2B72F1000180F0EE
:104AB0007C8730338DF847310DF24713039604930A
:104AC000012634E0039B43F010030393039B13F090
:104AD000200200F054810B9B073323F00703194693
:104AE0005A6851F8083B0B91039921F48066002124
:104AF0000020B9F1FF3F8DF87B0000F0938226F093
:104B00008000039053EA020040F08B82B9F1000F5D
:104B100040F0C187002940F0268516F001061BBF32
:104B200030238DF8473152AB0DF247130493002325
:104B3000B145CDE90C3349469DF87B200A93B8BFB7
:104B4000314605910F93002A52D0059B01330593FE
:104B50004EE0049BBAEB030500F0C280049B289F43
:104B6000CBE90035279B01332F44072B2897279348
:104B70000ADC0BF1080B079B2B440793D4E600BF1C
:104B80000000000000000000DDE9080126AA59F03D
:104B90002FFB80B90DF1A40BEDE7DDE9080126AA92
:104BA00059F026FB002800F08A800A9B1BB10A9965
:104BB000089857F0BFFE099B9B89590601F1E582D1
:104BC000079853B0BDEC028BBDE8F08F002D00F0CC
:104BD000878000228DF8E4508DF87B200123CDE9F9
:104BE0000C2205931E4639AB0A9291460F9204930C
:104BF000039B13F0020302D005990231059103993A
:104C000011F0840405D1DDE905010F1A002F00F32E
:104C10004183289F8AB1279A0DF17B010132013728
:104C2000CBF80010072A4FF0010128972792CBF804
:104C3000041000F387830BF1080B83B1279B1FAA95
:104C400001330237CBF80020072B4FF002022897E0
:104C50002793CBF8042000F383830BF1080B802CFF
:104C600000F0FC81A9EB0608B8F1000F00F34282C6
:104C7000039BDA0500F16D81049BCBF80030279B84
:104C8000CBF804600133F519072B2895279300F31F
:104C9000AA820BF1080B039B580705D5DDE9052314
:104CA0009C1A002C00F36E83DDE9062305998A42E5
:104CB000ACBF9B185B180793002D7FF46EAF0023E9
:104CC00027930A9B1BB10A99089857F033FE0DF100
:104CD000A40BCDF810A0049B1B78002B7FF415AE1D
:104CE000289B002B3FF467AF099C089826AA214611
:104CF00059F07EFAA38960E70B9B073323F0070383
:104D0000B3EC027B57EC176B0B9327F000431B931C
:104D10008DED1A7ADDE91A01AE4B4FF0FF328DEDC1
:104D2000107BFFF705FA002840F09B84DDE91A01AB
:104D3000A84B4FF0FF32FFF723F9002840F0918491
:104D40000022002330463946FFF710F9002840F0D2
:104D50005B879DF87B20039B9F4C23F0800303938C
:104D60009E4B472DC8BF1C4603210023CDE90C33C1
:104D700004940A9305910E4699460F93E3E60B9926
:104D800051F8043B0B91039911F010017FF4ACAE84
:104D9000039A12F0400000F019879BB20A46A3E67E
:104DA0000B9A52F8043B0B92039AD00600F15584FB
:104DB000039A510640F14D8443F3C03211461BB2B1
:104DC00064E60B9B002253F8041B8DF87B208DF8C2
:104DD000E4100B9302E70B9F57F8043B0493002663
:104DE0008DF87B60002B00F09E86B9F1FF3F00F04C
:104DF0000D8504984A463146FDF722FB0A900028AB
:104E000001F025810A9B049A0B97B1469E1A26EA67
:104E1000E673CDE90C999DF87B200593CDF8289099
:104E2000CDF83C908FE60B9B53F8042B0692002A9A
:104E300080F20A84069A0B9352420692039B9AF8D8
:104E4000005043F0040303937EE52B239AF80050AF
:104E50008DF87B3078E5039B9AF8005043F080038F
:104E6000039371E5524612F8015B2A2D01F0198275
:104E7000A5F13003092B92464FF000093FF666ADCD
:104E80001AF8015B09EB890903EB4909A5F1300325
:104E9000092BF5D95AE5039B9AF8005043F001031A
:104EA000039351E59DF87B309AF80050002B7FF476
:104EB0004BAD20238DF87B3046E5039B43F0100675
:104EC00016F0200200F089830B9B073323F00703C1
:104ED00019465A6851F8083B0B91012108E6039BDB
:104EE0009AF8005043F0080303932DE50B9A039BB7
:104EF00043F0020652F8043B0B9247F63002ADF83D
:104F00007C20374A1492022100227825F0E5039B89
:104F10009E0640F1FD830B9B079A1B681A60D2170F
:104F20005A600B9B04330B93D3E69AF80050039B13
:104F30006C2D00F0538443F01003039304E59AF8BA
:104F40000050039B682D00F0408443F0400303931E
:104F5000FAE4652D40F35381DDE9100100220023BE
:104F6000FEF7FAFF002800F04982279B1D4ACBF884
:104F70000020013301370122072B28972793CBF814
:104F8000042000F38E850BF1080B209B0E9A9342B0
:104F900004DB039BDB0701D43D467CE6129B139A9E
:104FA000DD19CBE90023279B28950133072B279395
:104FB00000F3FE830BF1080B0E9B5C1E002C7FF7A9
:104FC0006AAE102C279B084F40F37885DDE90889ED
:104FD000102611E0FFFFEF7FCC554A0034964900C0
:104FE000D8554A006892480008564A000BF1080B51
:104FF000103C102C40F3628501331035072BCBE9B0
:105000000076CDE92735F1DD26AA4946404659F01C
:10501000EFF800287FF4C9ADDDE927350DF1A40BC9
:10502000E6E7039E01293FF43FAD022900F07681B7
:1050300052AC03F00701DB0843EA4273D208303177
:1050400053EA0207204604F8011DF2D1F707049441
:1050500000F1768252AB03961E1B68E5DDE905235D
:10506000A3EB0208B8F1000F7FF7FCADB8F1100F09
:105070003A46279BC04F29DD19951C961024DDE97F
:105080000865194606E0A8F11008B8F1100F0BF1F9
:10509000080B18DD013110320729CBE90074CDE986
:1050A0002712F0DD26AA294630460DF1A40B59F04F
:1050B0009FF800287FF479ADA8F11008B8F1100F1F
:1050C000DDE92712E6DC199D1C9E0B460133CBF867
:1050D0000070072B08EB0207CDE92737CBF80480D7
:1050E00000F30E85A9EB0608B8F1000F0BF1080BD1
:1050F0007FF7BEADB8F1100F3A46279B9E4F2EDDCD
:105100005946089CC3464FF01009B84637462E460C
:10511000099D06E0ABF1100BBBF1100F01F1080186
:1051200018DD013394481032072BC1E90009CDE99D
:105130002732EFDD26AA2946204659F059F80028E3
:105140007FF433ADABF1100BBBF1100FDDE927326B
:1051500029A9E6DC35463E464746D8468B4601330C
:10516000CBF80070072B08EB0207CDE92737CBF807
:10517000048000F325820BF1080B79E5279B7F491A
:10518000CBF8001001337D1C0121072B28952793B4
:10519000CBF8041000F34A850BF1080B002A40F00D
:1051A000E084039B0E9A03F0010313433FF473ADB5
:1051B000129B139A5919CBE90023279B289101339D
:1051C000072B279300F3EF850BF1080B049ACBF81C
:1051D00000200E9ACBF8042001335518072BCDE997
:1051E00027357FF756ADDDE9080126AA59F000F80A
:1051F00000287FF4DAAC289D0DF1A40B4BE50E9B43
:10520000012B0BF1080640F37A81049BCBF80030A8
:10521000279B013301370122072B28972793CBF8CF
:10522000042000F3F981129A03F10108139BD519A8
:10523000B8F1070FC6E90032CDE9278500F3F88100
:1052400008360E9BDDE9100103F1FF39002200232F
:10525000FEF782FE002840F08B81049CC6F8049083
:1052600008F1010801344D44B8F1070FCDE9278555
:10527000346000F359810836169A726008F1010310
:105280001544072B22AACDE927353260ABDC06F1A5
:10529000080B00E5102FDDE92721DFF8E4802DDD84
:1052A00019934346CDE91C45B046DDE908451E4645
:1052B00004E0103F102F0BF1080B19DD0132103103
:1052C0001023072ACDE92721CBF80060CBF8043062
:1052D000EFDD26AA294620460DF1A40B58F088FFE1
:1052E00000287FF462AC103F102FDDE92721E5DCB8
:1052F000DDE91C453046199B46468046013239445B
:10530000072ACBF80080CBF804702891279200F38D
:10531000A9839DF87B200BF1080B7AE4149C52A919
:1053200003F00F001B09205C01F8010D43EA027332
:10533000120953EA0200F3D152ABCDE903615E1AC0
:10534000FFF7F5BBDDE9080126AA199358F050FFD5
:1053500000287FF42AAC289F199B0DF1A40B6CE464
:10536000DDE9080126AA58F043FF00287FF41DACB0
:10537000289F0DF1A40B72E408564A006892480079
:1053800018564A00102C279BDFF8CC8323DD4746B4
:10539000DDF82490DDF82080102604E0103C102C6D
:1053A0000BF1080B16DD01331035072BCBE9007626
:1053B000CDE92735F2DD26AA494640460DF1A40B7A
:1053C00058F016FF00287FF4F0AB103C102CDDE9FC
:1053D0002735E8DCB84601332544072BCBE90084A8
:1053E000CDE927357FF760ACDDE9080126AA58F042
:1053F000FFFE00287FF4D9AB289D55E4209A002AAF
:105400007FF7BCAE0C9E0E9B049A9E42A8BF1E4620
:10541000002E134419930BDD279B01333744072BD0
:10542000CBE900262897279300F39F850BF1080B03
:105430000C9D002EA8BFAD1B002D00F3EF81049B37
:105440000C9A13449946039B5E0500F10C82209C44
:105450000E9B9C4203DB039AD50740F18E84129B7E
:10546000139ADD19CBE90023279B28950133072BDD
:10547000279300F3DE850BF1080B0E9B1C1B199B79
:10548000A3EB0906A642A8BF2646002E0DDD279BEA
:10549000CBF8009001333544072BCBF804602895F6
:1054A000279300F3E0850BF1080B002EA8BFA41B87
:1054B000002C7FF7F0AB102C279BA64F40F3FE8209
:1054C000DDE90889102605E00BF1080B103C102CD3
:1054D00040F3F48201331035072BCBE90076CDE998
:1054E0002735F1DD26AA4946404658F081FE0028BE
:1054F0007FF45BABDDE927350DF1A40BE6E7039BF9
:10550000DC073FF582AE049BCBF80030279B03F10C
:1055100001087D1C0123B8F1070F2895CDF89C8068
:10552000CBF804307FF7A8AEDDE9080126AA58F0D1
:105530005FFE00287FF439ABDDE9278529AE9BE6C5
:10554000302900F0C882049A03963023023802F80A
:10555000013C52AB1E1A0490FFF7E9BAB9F1000FF3
:105560007FF4A7AA039652AB4E460493FFF7DFBA27
:105570000E9B012B7FF780AE112B764F40F3E48218
:1055800043461024DDE9088B06E00836A9F110092E
:10559000B9F1100F40F3D78201331035072BC6E95C
:1055A0000074CDE92735F0DD26AA5946404658F06B
:1055B0001FFE00287FF4F9AADDE9273529AEE5E7CB
:1055C000DDE9080126AA58F013FE00287FF4EDAAB1
:1055D000289F0DF1A40BFFF74BBB0B9951F8043B2F
:1055E0000B9116F010010CD116F0400004D00A46C1
:1055F0009BB20121FFF77CBA16F400721CBFDBB22C
:1056000002460121FFF774BA5B42039E62EB42023D
:105610002D200121FFF76DBADDE9080126AA58F017
:10562000E7FD00287FF4C1AADDE9273729AEFAE5B6
:10563000DDE9080126AA58F0DBFD00287FF4B5AAB1
:10564000DDE9278529AEFCE59AF800500B93FFF7BA
:105650007BB9039A920500F1A083DA171146FFF790
:1056600015BADDE9100102460B46FEF761FD002880
:1056700040F0CC85612D00F09584412D00F003852C
:10568000B9F1FF3F00F0AA8325F02003472B04D196
:10569000B9F1000F08BF4FF00109DDE91001039CCB
:1056A000002944F480720592C0F2B584002341ECD5
:1056B000180B19930A93A5F14103252B00F2C4821C
:1056C000DFE813F09603C202C202C2028F03930303
:1056D000C202C202C202C202C202C202C202C202AA
:1056E000C202C202C202C202C202C202C202C2029A
:1056F000C202C202C202C202C202C202C202C2028A
:10570000C202C202C202C202C202C2028F039303D9
:10571000039BDD0600F10182039B5C0600F13783E9
:10572000039B980540F1F9810B9B079A1B681A703F
:10573000FFF7F7BB159B9AF80050002B3FF404A924
:105740001B78002B3FF400A9039B43F48063039371
:10575000FFF7FAB808564A0018564A00BD4B149392
:10576000039B13F0200200F002810B9B073323F010
:10577000070319465A6851F8083B0B910398C10773
:105780000AD553EA020107D040F00201039130210B
:105790008DF87D508DF87C10039921F480660221EC
:1057A000FFF7A6B9039EFFF78BBBAB4B1493D7E76C
:1057B000DDE9080126AA58F01BFD00287FF4F5A9B1
:1057C000289D0DF1A40BFFF7F7BB43F400739AF883
:1057D000015003930AF1010AFFF7B6B843F0200322
:1057E0009AF8015003930AF1010AFFF7ADB808983F
:1057F000402152F083F8099B18601861002800F0DE
:10580000C184099A40235361FFF767B804980B9746
:10581000FCF736FCB1460646FFF7F9BA102D3A46BA
:10582000279B8E4F40F3E181DDE90848102605E013
:105830000BF1080B103D102D40F3D78101331032CE
:10584000072BCBE90076CDE92732F1DD26AA4146C8
:10585000204658F0CDFC00287FF4A7A9DDE92732C7
:105860000DF1A40BE6E70D99CDF870A05A46384625
:105870007A4EDDF854A0189BDDF824B04F464FF067
:105880001008DDF83C9081B3B9F1000F00F0FD8005
:1058900009F1FF391799C2E900132799013118441A
:1058A00007292890279173DC0832199C9AF8001078
:1058B000E51B8D42A8BF0D46002D0CDD2799013157
:1058C00028440729C2E900752890279100F309812F
:1058D0009AF800100832002DACBF4C1B0C46002C6F
:1058E00012DC0F440D990029CED1B9F1000FCFD1B0
:1058F000199BCDF854A0B9469945DDF870A09346A0
:10590000074628BF9946A2E5102C279940F39084BA
:10591000089D04930C9604E0103C102C02F1080240
:1059200015DD013110300729C2E90068CDE92710E3
:10593000F2DD26AA5946284658F05AFC00287FF482
:1059400034A9103C102CDDE9271029AAE9DC049BBE
:105950000C9D1560013120440729CDE927105460C2
:1059600000F310839AF8001008320F44BAE70B993D
:1059700051F8043B0B91039911F010017FF4FEAE36
:10598000039A12F0400000F029819BB20A46F5E626
:105990000898049326AA594658F02AFC00287FF458
:1059A00004A92898049B29AA7FE70021CDE9045681
:1059B00006F48067DFF8A880159ECDF80CA052ACE5
:1059C0008C4605E00A2B72F1000235D353462A4675
:1059D000991841F10001A8FB010525F0030000EB37
:1059E0009500091A581A4FF0CC3562F1000E05FBEC
:1059F00000F508FB0E55A0FB08A005440AF0010EB7
:105A00000520AEFB000E40184FEA5A0A303004F869
:105A1000010C4AEAC57A0CF1010C013C6D08002F1B
:105A2000D0D031788C45CDD1BCF1FF0FCAD00A2B34
:105A300072F1000280F0ED801596DDE9045652AB5C
:105A4000DDF80CA0CDF838C0CDE903641E1BFFF7CC
:105A50006EB800BFEC554A00D8554A0008564A00B7
:105A6000CDCCCCCCDDE9080126AA199358F0C0FBB7
:105A700000287FF49AA89DF87B20199B0DF1A40BB8
:105A8000FFF7C7B8039EFFF70FB80D9901390AF168
:105A9000FF3A0D91FEE60129039E7FF4C6AAFFF7A7
:105AA00008B8DDE9080126AA58F0A2FB00287FF417
:105AB0007CA8289F0DF1A40BFFF767BA013325449A
:105AC000072BCBF80070CBF80440CDE927357FF7E2
:105AD000E0A8FFF788BB049A039652AB9E1AFFF723
:105AE00026B80898049326AA594658F081FB002846
:105AF0007FF45BA89AF800102898049B29AAEAE68C
:105B0000DDE9080126AA58F073FB00287FF44DA8B0
:105B1000289F0DF1A40BFFF7A5B80B9B079A1B68F4
:105B20001A60FFF7FEB94E46062E1A4628BF062613
:105B300099460A93C14B0596CDE90C220B97049325
:105B40000F92FFF700B8984608F101084D44B8F1EC
:105B5000070FCDE927853760C6F804907FF78BAB38
:105B6000E2E4129B13985919CBE90003279B289173
:105B70000133072B279300F316810BF1080B002A42
:105B8000BFF624AB56421032AD4F80F2D382DDE92E
:105B90000848102505E00BF1080B103E102E40F3CD
:105BA000C98201331031072BCBE90075CDE92731CC
:105BB000F1DD26AA4146204658F01AFB00287EF463
:105BC000F4AFDDE927310DF1A40BE6E7039A12F4F7
:105BD00000721CBFDBB20246FEF786BF039A12F4C6
:105BE00000721CBFDBB20246C8E50133CBF800707F
:105BF000072B05EB0207CDE92737CBF8045000F35C
:105C0000E0800BF1080B1AE42D228DF87B20FFF7C2
:105C1000A2B8189B1799E41A1A46204653F0AEFA18
:105C2000737803B101364FF0000CCFE6DDE90801CF
:105C300026AA58F0DDFA00287EF4B7AF209A289DF6
:105C40000DF1A40BFFF7AABA4F46022124AB019332
:105C500021AB00930898B0EE480AF0EE680A20AB3A
:105C60003A4600F041FB672D049000F00E82472D6C
:105C700000F09D82049B25F02008B8F1460F03EB4D
:105C8000070605D11B78302B00F0E482209F3E44AC
:105C900051EC180B00220023FEF75EF9002800F0FB
:105CA00040813346049A9B1A0E93209A0C92B8F1C5
:105CB000470F00F02481B8F1460F00F0FE81531E1B
:105CC000612D209300F0DE82412D40F02081502193
:105CD0000120002BB6BFC2F101032B222D22092B7C
:105CE0008DF888108DF8892040F33D820DF19706DC
:105CF000544F32461046A7FB0312D20802EB820132
:105D0000A3EB4101303100F8011C19466329134609
:105D100000F1FF32EEDC303302F8013C831EB34267
:105D200080F0BC820DF1890213F8011B02F8011FFB
:105D3000B342F9D152AB181AA0F1AD0316930E9BE2
:105D4000169A012B03EB020640F32D82129B1E4490
:105D500024F4806343F4807303930023CDE90C3370
:105D600026EAE6720F930592199B002B40F0D28031
:105D70009DF87B209946FEF7E6BE199A1C1BA2EB04
:105D80000906A6423D46A8BF2646FFF78EBB0B9BE1
:105D9000079A1B681A80FFF7C4B843F3C012114674
:105DA0005BB2FEF773BEDDE9080126AA58F020FABF
:105DB00000287EF4FAAEDDE92731209A0DF1A40B1C
:105DC000DDE6DDE9080126AA58F012FA00287EF483
:105DD000ECAE289F0DF1A40BFFF731BB4FF0060985
:105DE0005BE409F10107022130E74F4603212DE76B
:105DF00020A8B0EE480AF0EE680A58F045F80022F4
:105E00004FF07F5351EC100BFDF758FC002200239C
:105E100006460F46FEF7A0F8002840F0BB810A4B6B
:105E2000039309F1FF33CDE91C9B0D95CDE90E4A93
:105E3000DDF81080DDF80CB01D460DE000564A007C
:105E400008564A00CDCCCCCCEC554A0000220023A9
:105E5000FEF782F8F0B94D46AD4B00223046394688
:105E6000FDF72CFC0F460646FEF778F90446FDF7D1
:105E7000BBFB0B46024639463046FDF767FA1BF876
:105E80000430C24608F8013B6B1C05F1FF39064699
:105E90000F46DBD19F4B0C950022304639460D9DB5
:105EA0000D94DDE91C9B0E9CCDF838A0DDF83CA0DC
:105EB000FEF77AF8002840F00E81964B30463946BE
:105EC0000022FEF749F818B10D9BDF0700F10381AE
:105ED0000C9B002BC0F21A810C9B013343443022EF
:105EE00008F8012B4345FBD1049A9B1A0E9325F029
:105EF0002008DAE6049A249B9B1A209A0E93D31C5E
:105F00000C9201DB914518DA531E023D2093E9B251
:105F10000020DEE62D228DF87B204FF00009FEF7F1
:105F200014BE249BB342BFF4BDAE30215A1C249250
:105F30001970249B9E42F9D8B4E60E9B934200F35D
:105F4000AB80E30740F16081129BD618670502D54C
:105F5000002A00F33381059B039326EAE673059339
:105F6000672500230F930D93FEE6DDE9080126AABD
:105F700058F03EF900287EF418AE289F0DF1A40BCE
:105F8000FFF756BA0898049326AA594658F030F9F4
:105F900000287EF40AAE9AF800102898049B29AADB
:105FA0000F449FE478238DF87D3030238DF87C30CA
:105FB000039BB9F1630F43F0020400F3AF800023A9
:105FC0000A9339AB0493039B43F481730593119BAC
:105FD000002B23DB9DED108B00231993612D7FF4A3
:105FE0006AABB0EE480AF0EE680A20A857F04CFF02
:105FF00000224FF07F5351EC100BFDF75FFB0022A6
:10600000002306460F46FDF7A7FF002840F0C28098
:10601000414B039305E70023039C0A93DDE910231A
:1060200003F1004308EE903A2D2308EE102A19934D
:10603000D4E7DDE9080126AA58F0DAF800287EF452
:10604000B4AD209C289D0DF1A40BFFF716BA4E4667
:10605000CDF81490CDE90C009DF87B200B9781467C
:106060000F90FEF770BDDDE9080126AA58F0C0F8D0
:1060700000287EF49AAD209C0E9B289D1C1B0DF1E0
:10608000A40BFFF712BA58238DE7E6077FF532AF6E
:10609000C6194FF04708FBE50E9B129A9E180C9B01
:1060A000002B40F3C8806725620500F18880059BBE
:1060B000039326EAE673059353E70C9A04F0010371
:1060C000002A43EA090340F3D580002B40F0BD804D
:1060D0000C9E6625E8E70E9B039A2493D17B18F863
:1060E000013C8B42424609D1302002F8010C249A2F
:1060F000531E249312F8013C9942F6D0392B0BBF62
:10610000039B01339B7ADBB202F8013C4346EBE68A
:10611000000030400000E03FD8554A00089809F1DF
:10612000010151F0EBFB0490002800F0C980049BB2
:106130000A9348E701333144072BCDE92731CBF8E7
:106140000070CBF804607FF73FA8DDE9080126AABC
:1061500058F04EF800287EF428ADDDE927310DF126
:10616000A40BFFF733B8002840F0818030228DF86F
:106170008A200DF18B02303302F8013B22ABD31A97
:106180001693DCE5089A0C2313604FF0FF33079356
:10619000FEF716BD4E4B4F4A612D18BF1A4601231C
:1061A000039220933DE6E2077FF5D2ADCEE5E1070D
:1061B0007FF5A0AE049BA846DE1969E56725159911
:1061C0000B78FF2B78D000240C9A204603E0013096
:1061D0000131FF2B08D0934206DAD21A4B78002BFC
:1061E000F5D10B780134F4E715910D900F940C92D2
:1061F000059B0D9A03930F9B1344189A02FB0366A9
:1062000026EAE6730593AFE516469FE6119B324CEE
:10621000002B039BA8BF9DF87B2023F08003B8BF11
:106220002D220393B8BF8DF87B202C4BFEF799BD30
:106230002B4DFFF78EBBC3F101031E44059A039259
:1062400026EAE673059367258BE6129BD6184E4423
:10625000662529E751EC180B00220023FDF77CFE90
:1062600000287FF413ADC7F1010720970FE50DF16A
:106270008A0280E743B9059B0393012305936625B2
:106280001E466EE6702123E5059B0393129B5E1C60
:106290004E4426EAE6730593662562E602231693CA
:1062A0004DE50B9B9AF80150924653F8042B0B9343
:1062B00042EAE279FEF748BB00230F930D9397E77C
:1062C00009998B8943F0400213468A81FEF775BC19
:1062D000EC554A00D8554A00D0554A00D4554A00DA
:1062E00008564A00000000002DE9F04F9FB08DEDE8
:1062F000040B0091016C289D029057EC106B0A92E0
:10630000089349B1426C4A600123934004468B6074
:1063100056F0EEFE00232364B7F10009B4BF012359
:1063200000232B60764BBCBF29F00049CDF81490B8
:1063300033EA090300F0A8809DED047B002251ECB4
:10634000170B00238DED067BFDF706FE804668B136
:10635000089A01231360299B13B1299A694B136092
:10636000694B039303981FB0BDE8F08F9DED060BBA
:1063700002981CAA1DA957F0D9FA5FEA195582465E
:1063800040F09880DDE91C85454405F23243202B1E
:1063900040F38483C3F1400309FA03F905F2124381
:1063A00026FA03F349EA0300FDF70EF90123013D44
:1063B0001193A1F1F871554B0022FCF7C7FF4AA3D6
:1063C000D3E90023FDF77AF949A3D3E90023FCF7C9
:1063D000BFFF064628460F46FDF706F946A3D3E958
:1063E0000023FDF76BF902460B4630463946FCF7B1
:1063F000AFFF06460F46FDF7B1FE0022834600239D
:1064000030463946FDF7B2FD002840F01B83A8EB6B
:106410000508BBF1160F08F1FF3400F28D813C4DE9
:1064200005EBCB05D5E90023DDE90601FDF79EFD6F
:10643000002873D00023002C0BF1FF3B1093C0F217
:10644000808100230B93BBF1000F6DDA0B9BA3EB54
:106450000B030B93CBF10003CDE90EB3009B092B8B
:106460004FF0000B68D8052B40F31D83043B0093CD
:106470000025009B023B032B00F22486DFE813F08B
:1064800060045D0455043904089AC9F3130942F203
:106490000F7359EA060913601CD1299B002B00F0E9
:1064A0002C861C4B03930833299A039813601FB062
:1064B000BDE8F08FDDE90612C2F31303084643F08E
:1064C0007F51CDF84480A5F2FF35DDF8708041F4AE
:1064D000401170E7299B002B40F0E8830E4B03939B
:1064E00040E700BFAFF3008061436F63A787D23FEF
:1064F000B3C8608B288AC63FFB799F501344D33FB3
:106500000000F07F69924800689248000000F83F60
:106510005089480018594A0024594A00B8F1000F20
:1065200040F35D8410900B9000230F93009BCDF8F7
:1065300038B0092B5C4496D900234FF0FF32CDE9E7
:106540000923012500930C95029B00215964099BA6
:106550001893029856F0A6FD0390002800F0BB8522
:10656000DDE902321A64099B0E2B00F21481002D22
:1065700000F011810E9A002A40F33884B14D02F0E8
:106580000F0305EBC3031511D205D3E9008940F1D0
:10659000F883AD4BDDE90601D3E90823FDF7B8F92F
:1065A000CDE9120105F00F0503277DB1A64EEB07DB
:1065B00008D540464946D6E90023FDF77FF8013764
:1065C000804689466D1006F10806F0D142464B46DA
:1065D000DDE91201FDF79CF980468946109B43B125
:1065E0009A4B002240464946FDF7C0FC002840F087
:1065F000F0843846FCF7F8FF42464B46FDF75EF85C
:10660000934B0022FCF7A4FE099B0646A1F15077AC
:10661000002B00F0A9800E9B1993099B1293039BFA
:10662000884D49464046CDE914675E1CFDF796FD4E
:10663000129905EBC10313ED027B07468DED167B26
:10664000FCF7D2FF02460B4640464946FCF77EFE69
:1066500089460C993037DDE916238046FFB20029C0
:1066600000F052847B490020FDF752F9DDE9142344
:10667000FCF76CFE039D02460B46CDE914232F70F8
:1066800042464B46FDF790FC002840F09684CDE949
:106690001AB4CDF858A0129DDDE914AB00272AE00A
:1066A0000137AF4280F2DD846B4B504659460022E1
:1066B000FDF704F8684B002282468B464046494667
:1066C000FCF7FCFF89468046FDF748FD0446FCF7D1
:1066D0008BFF02460B4640464946FCF737FE3034F6
:1066E00006F8014B52465B4680468946FDF73EFC64
:1066F000002840F0B38442464B4654490020FCF742
:1067000025FE52465B46FDF731FC0028C8D0199B98
:10671000DDF858A0039A374603F1010802E09742DA
:1067200000F07B843E4617F8013D392BF7D001334A
:10673000DBB23B70454674E10123002C1093BFF699
:1067400080AEC8F101030B9300247CE63846FCF7C9
:106750004BFF42464B46FCF7B1FF3D4B0022FCF796
:10676000F7FD0646A1F150773C4B404649460022D2
:10677000FCF7ECFD32463B4680468946FDF714FCAB
:10678000002840F0598440464946324607F100430C
:10679000FDF7ECFB28BB1D9B002BC0F291800E9AED
:1067A0000E2A00F38D80274D0E9B05EBC30595ED5A
:1067B000007B0A9B002B8DED007B19DA099B002BD7
:1067C00016DC0ED1254B0022DDE90001FCF776FF37
:1067D00002460B46DDE90601FDF7D2FB002800F07A
